:020000040800F2
:1000000090080020290200084B5700081D15000821
:10001000195600084F030008876C00080000000014
:10002000000000000000000000000000D15E000899
:10003000FD10000800000000AD5A000851650008DE
:10004000430200084302000843020008430200087C
:10005000430200084302000843020008430200086C
:10006000430200084302000843020008430200085C
:10007000430200084302000843020008430200084C
:1000800043020008430200084302000885060008F6
:100090006504000843020008430200084302000808
:1000A000430200084302000843020008430200081C
:1000B000430200084302000843020008430200080C
:1000C00043020008430200084302000843020008FC
:1000D0004302000843020008816800084302000848
:1000E00043020008430200084302000843020008DC
:1000F00043020008430200084302000843020008CC
:1001000043020008430200084302000843020008BB
:10011000430200084302000843020008BD650008CE
:10012000430200084302000843020008430200089B
:10013000430200084302000843020008430200088B
:10014000430200084302000843020008430200087B
:10015000430200084302000843020008430200086B
:10016000430200084302000843020008430200085B
:10017000430200084302000843020008430200084B
:10018000430200084302000800F002F800F03CF8C7
:100190000AA090E8000C82448344AAF10107DA45E2
:1001A00001D100F031F8AFF2090EBAE80F0013F0F8
:1001B000010F18BFFB1A43F0010318473C7E0000F3
:1001C0005C7E0000103A24BF78C878C1FAD8520784
:1001D00024BF30C830C144BF04680C6070470000C1
:1001E0000023002400250026103A28BF78C1FBD840
:1001F000520728BF30C148BF0B6070471FB507F0DA
:10020000DEFA1FBD10B510BD00F033F81146FFF740
:10021000F5FF06F0EBFE00F051F803B4FFF7F2FF34
:1002200003BC06F032FD000009488047094800473A
:10023000FEE7FEE7FEE7FEE7FEE7FEE7FEE7FEE796
:10024000FEE7FEE704480549054A064B70470000F3
:1002500055650008890100089002002090080020E0
:10026000900400209004002070477047704770474A
:100270007047754600F02CF8AE46050069465346B7
:1002800020F00700854618B020B5FFF7DBFFBDE87A
:1002900020404FF000064FF000074FF000084FF0ED
:1002A000000B21F00701AC46ACE8C009ACE8C0097E
:1002B000ACE8C009ACE8C0098D46704710B50446EB
:1002C000AFF300802046BDE81040FFF7A6BF000056
:1002D00000487047300200201CB50121202005F0A5
:1002E000E7FB4FF48070009001208DF8040000209F
:1002F0008DF8060003208DF8050002208DF8070018
:100300006946044800F089FF4FF48071014800F00D
:10031000EFFF1CBD0014024010B5A82006F0E0FD60
:100320004FF4806005F0B8FB05F06AFB00F0CAFEF0
:10033000FFF7D2FF01F00AFA00F064FE06F05AFE61
:100340004FF4E13006F056FB05F068F910BD00BF30
:10035000FEE7000000B58BB00121084605F0A8FBC0
:100360000121480605F0C4FB09220C213B4800F09E
:100370009CFF09220B21394800F097FF4FF4C05031
:10038000029002208DF80C0002A9344800F045FFCD
:1003900014208DF8040002208DF8050001208DF84E
:1003A00006008DF8070001A805F03AFB13208DF830
:1003B000040001208DF805008DF806008DF8070077
:1003C00001A805F02DFB264800F0C2F908A800F0AE
:1003D0006DFD00208DF826008DF827008DF828008F
:1003E0008DF829008DF82A0001208DF82B000020BF
:1003F0008DF822008DF8230008208DF824000320BA
:100400008DF82500ADF8200008A9154800F0E7FA9E
:1004100000208DF81A008DF81B0001208DF81C00BB
:100420000020ADF81000ADF81200ADF81400ADF8E2
:100430001600ADF8180001208DF81D0004A800F08A
:10044000B1F901220221064800F0C0FA012211464A
:10045000034800F0BBFA0BB000BD000000000240F2
:100460000064004000B585B002217F4800F01EFA0C
:10047000002839D002217C4800F016F96A46002194
:10048000794800F036FB9DF8080000282CD19DF833
:1004900008000028FAD19DF80A000828F6D1009833
:1004A0001B2822D19DF80C009DF80B1040EA01207A
:1004B00000B26E4908809DF80E109DF80D0041EACB
:1004C000002000B26A4908809DF80F0001069DF8DF
:1004D000100041EA00419DF8110041EA00209DF81A
:1004E0001210084363490860BCE000982B2822D111
:1004F0009DF80C009DF80B1040EA012000B25B490A
:1005000048809DF80E109DF80D0041EA002000B2D1
:10051000574948809DF80F0001069DF8100041EAF8
:1005200000419DF8110041EA00209DF81210084397
:100530005049486096E000983B2822D19DF80C0075
:100540009DF80B1040EA012000B2484988809DF8D0
:100550000E109DF80D0041EA002000B24449888049
:100560009DF80F0001069DF8100041EA00419DF83A
:10057000110041EA00209DF8121008433D498860AF
:1005800070E000984B2822D19DF80C009DF80B10CC
:1005900040EA012000B23549C8809DF80E109DF850
:1005A0000D0041EA002000B23149C8809DF80F00DB
:1005B00001069DF8100041EA00419DF8110041EA52
:1005C00000209DF8121008432A49C8604AE00098AC
:1005D0001F2803D101202849087043E000982F28E4
:1005E00003D10120244948703CE000983F2803D102
:1005F00001202149887035E000984F2803D101205F
:100600001D49C8702EE000981C2808D19DF80B00E9
:100610001A4908709DF80C001949087022E00098EA
:100620002C2808D19DF80B00144948709DF80C0047
:100630001349487016E000983C2808D19DF80B003B
:100640000E4988709DF80C000D4988700AE00098EA
:100650004C2807D19DF80B000849C8709DF80C0084
:100660000749C87005B000BD0064004006000020C6
:100670000E000020D4000020160000201A000020E8
:100680001E00002010B50121054800F00FF930B11F
:100690000121034800F008F801200249087010BD4C
:1006A0000064004004000020B1F5007F3AD00FDC68
:1006B000202928D006DC01291CD004291DD00829B6
:1006C00040D11DE0402921D0B1F5807F3AD126E00C
:1006D000B1F5004F31D006DCB1F5806F25D0B1F512
:1006E000006F2FD124E0B1F5803F12D0B1F5003F6B
:1006F00028D111E0154A826025E00822C26022E07C
:100700001022C2601FE0082202611CE01022026178
:1007100019E00822426016E01022426013E0042231
:10072000426010E0042242600DE0042242600AE0D0
:10073000002282610422426005E0002282610422DC
:10074000426000E000BF00BF7047000001010100EF
:1007500010B504460B48844209D10121480605F032
:10076000D7F900214FF0007005F0D2F908E001211F
:10077000880605F0CDF900214FF0806005F0C8F93A
:1007800010BD00000064004010B5002106E02822E2
:1007900000BF131EA2F10102FBD1491C8142F6D316
:1007A00010BD000010B50021837A012202FA03F186
:1007B0003D4A126842F001023B4B1A603A4A1C3231
:1007C00012688A43384B1C331A60027BCAB9364A16
:1007D0000C3212688A43344B0C331A604288C38847
:1007E00042EA0343304A4032847A42F83430028885
:1007F000838842EA03432C4A4032847A02EBC402E3
:100800005360027B012A19D1274A0C3212680A432D
:10081000254B0C331A604288038842EA0343224A7C
:100820004032847A42F83430C288838842EA0343F3
:100830001D4A4032847A02EBC4025360C27A3AB94C
:10084000194A121D12688A43174B1B1D1A6006E0D5
:10085000154A121D12680A43134B1B1D1A600289A8
:1008600032B9114A143212688A430F4B14331A609A
:100870000289012A06D10C4A143212680A430A4B33
:1008800014331A60427B012A06D1074A1C321268CF
:100890000A43054B1C331A60034A126822F0010216
:1008A000014B1A6010BD00000066004070B50446A0
:1008B0000D46002660692840002871D0B5F5807F7C
:1008C0005CD010DC082D35D006DC012D20D0022DA7
:1008D00024D0042D72D127E0102D31D0202D35D019
:1008E000402D6BD138E0B5F5004F60D009DCB5F58F
:1008F000007F49D0B5F5806F4CD0B5F5006F5DD164
:100900004FE0B5F5803F2DD0B5F5003F56D12FE033
:10091000A0682D4900F06DFB064651E0E068032118
:1009200000F067FB06464BE0E068082100F061FB41
:10093000064645E0E068102100F05BFB06463FE01C
:100940002069032100F055FB064639E020690821A3
:1009500000F04FFB064633E02069102100F049FB10
:1009600006462DE06068082100F043FB064627E0BC
:100970006068102100F03DFB064621E0A0690121DE
:1009800000F037FB06461BE0A069022100F031FBB6
:10099000064615E0A069042100F02BFB06460FE097
:1009A0000FE0A069702100F024FB064608E06068B3
:1009B000042100F01EFB064602E0FFE7002600BF10
:1009C00000E00026304670BD010101001AB1436904
:1009D0000B43436102E043698B434361704730B589
:1009E000024600200023146824F0020414601468F6
:1009F00044F00104146000E05B1C546804F001043E
:100A00001CB94FF6FF74A342F6D1546804F00104F8
:100A10000CB900206CE08C79012C04D1146844F0EE
:100A20008004146003E0146824F080041460CC791E
:100A3000012C04D1146844F04004146003E01468ED
:100A400024F0400414600C7A012C04D1146844F0A2
:100A50002004146003E0146824F0200414604C7A2D
:100A6000012C04D1146844F01004146003E01468ED
:100A700024F0100414608C7A012C04D1146844F022
:100A80000804146003E0146824F008041460CC7AAD
:100A9000012C04D1146844F00404146003E01468C9
:100AA00024F0040414608C78A407CD7844EA05642B
:100AB0000D7944EA05444D7944EA05540D886D1ECC
:100AC0002C43D461146824F001041460002300E076
:100AD0005B1C546804F001041CB14FF6FF74A34280
:100AE000F6D1546804F001040CB1002000E00120AC
:100AF00030BD10B500F5D87303EB01131B6803F08C
:100B000004031372137A53B900F5D87303EB01137E
:100B10001B6840F2FF7404EA5353136009E000F5C8
:100B2000D87303EB01131B686FF0604404EAD3032E
:100B3000536000F5D87303EB01131B6803F0020345
:100B4000537200F5D87303EB01135B6803F00F03D6
:100B5000937200F5D87303EB01135B681B0AD3741F
:100B600000F5D87303EB01139B68D37200F5D873BB
:100B700003EB01139B681C0A147300F5D87303EB95
:100B800001139B681C0C547300F5D87303EB01131D
:100B90009B681B0E937300F5D87303EB0113DB689E
:100BA000D37300F5D87303EB0113DB681C0A1474CC
:100BB00000F5D87303EB0113DB681C0C547400F5CB
:100BC000D87303EB0113DB681B0E937421B9C36860
:100BD00043F02003C36003E0036943F02003036193
:100BE00010BD00002DE9F04186B005460E46904646
:100BF0001C460A2700208DF80C008DF80D000820F7
:100C00008DF80E00072D06DC0F2E04DC47EA0527C1
:100C100047EA061702E006B0BDE8F08114B1012CE6
:100C200000D0002401978DF80F808DF810405521D9
:100C30008DF811108DF812108DF813108DF8141016
:100C40008DF815108DF8161000200F49087001A9B5
:100C50000E4800F03BF900200D4908600CE001202F
:100C6000FFF792FD0A480068401C094908600846E1
:100C70000068642800D903E0034800780028EED01B
:100C800000BF00BFC7E70000040000200064004070
:100C900000000020F0B585B004460D461746012639
:100CA00000208DF808008DF8090008208DF80A0052
:100CB000072C06DC0F2D04DC46EA042646EA05165E
:100CC00001E005B0F0BD00968DF80B7055218DF850
:100CD0000C108DF80D108DF80E108DF80F108DF88A
:100CE00010108DF811108DF8121000200E490870A8
:100CF00069460E4800F0EAF800200D4908600CE053
:100D00000120FFF741FD0A480068401C08490860BF
:100D100008460068642800D903E0034800780028EA
:100D2000EED000BF00BFCCE704000020006400400C
:100D30000000002070B586B004460D460026002055
:100D40008DF80C008DF80D0008208DF80E00072C92
:100D500006DC0F2D04DC46EA042646EA051601E00F
:100D600006B070BD019655208DF80F0055218DF805
:100D700010108DF811108DF812108DF813108DF8D9
:100D800014108DF815108DF8161000200E490870FB
:100D900001A90E4800F09AF800200D4908600CE007
:100DA0000120FFF7F1FC0A480068401C0849086070
:100DB00008460068642800D903E00348007800284A
:100DC000EED000BF00BFCBE704000020006400406D
:100DD000000000202DE9F04186B005460E4614467D
:100DE0001F464FF0040800208DF80C008DF80D0010
:100DF00008208DF80E00072D06DC0F2E04DC48EAD3
:100E0000052848EA061802E006B0BDE8F081CDF8F2
:100E1000048041F28830844201DD044603E01F482B
:100E2000844200DA0446002C05DA201E01DB01466C
:100E300000E041420CB2200A8DF80F008DF81040FE
:100E4000390A8DF811108DF8127055218DF8131094
:100E50008DF814108DF815108DF81610002010491B
:100E6000087001A90F4800F031F800200E49086011
:100E70000CE00120FFF788FC0B480068401C0A4981
:100E8000086008460068642800D903E00448007838
:100E90000028EED000BF00BFB6E7000078ECFFFFEF
:100EA0000400002000640040000000200021817147
:100EB000C171017241728172C1728170C17003216E
:100EC00001710221417101210180704710B5024674
:100ED0000020936803F08063B3F1806F00D110E0CD
:100EE000936803F00063B3F1006F01D1012008E0C3
:100EF000936803F08053B3F1805F01D1022000E0DA
:100F00000420042874D002F5C07303EB00131B689F
:100F100003F0010402F5C07303EB00131C600B7AAD
:100F20007BB94B7A0C8843EA445302F5C07404EB56
:100F300000142468234302F5C07404EB00142360FA
:100F400010E00B7A4C6843EAC4034C7A234302F561
:100F5000C07404EB00142468234302F5C07404EB4E
:100F6000001423608B7A03F00F038B7202F5C073B9
:100F700003EB00135B6823F00F0402F5C07303EB6F
:100F800000135C6002F5C07303EB00135B688C7A9E
:100F9000234302F5C07404EB001463608B7B1C06D2
:100FA0004B7B44EA03440B7B44EA0323CC7A234380
:100FB00002F5C07404EB0014A3608B7C1C064B7C10
:100FC00044EA03440B7C44EA0323CC7B234302F52D
:100FD000C07404EB0014E36002F5C07303EB00136C
:100FE0001B6843F0010402F5C07303EB00131C609F
:100FF00010BD0246002002EA01030BB1012000E00F
:10100000002070471CB50121332004F051FD012060
:10101000009000208DF8040003208DF805000020CA
:101020008DF807006946234800F0F7F80320009088
:1010300000208DF8040003208DF8050002208DF8B3
:10104000070069461C4800F0E8F84FF44070009033
:1010500001208DF8040000208DF8060003208DF893
:10106000050001208DF807006946144800F0D5F806
:101070004FF44071114800F03BF94FF4806000904C
:1010800001208DF8040000208DF8060003208DF863
:10109000050001208DF807006946094800F0BDF8F9
:1010A0004FF48061064800F023F90A2005F036FF6E
:1010B0001CBD00000010024000000240000402407D
:1010C000001402401CB54FF40040009001208DF840
:1010D000040000208DF8060003208DF80500012093
:1010E0008DF807006946044800F097F84FF4004176
:1010F000014800F0FDF81CBD0018024070470000D8
:1011000051B18200A2F1C042126842F00103820094
:10111000A2F1C042136009E08200A2F1C04212684D
:10112000034B1A408300A3F1C0431A6070470000CC
:10113000FEFF0F00D0E901121143C268114302699A
:1011400011434269114382691143C2691143026A22
:101150001143426A1143826A1143C26A1143026B0E
:10116000114302689200A2F1C0421160816808290F
:101170000BD101688900A1F1C041096841F040022A
:1011800001688900A1F1C0410A60416B0968426BA6
:10119000526841EA0211426B926841EA0221426BB5
:1011A000928941EA0241426B128A41EA0251426B42
:1011B000127D41EA0261426B926911430268521C3E
:1011C0009200A2F1C0421160C16AB1F5804F1BD1FB
:1011D000816B0968826B526841EA0211826B9268E6
:1011E00041EA0221826B128A41EA0251826B127D2E
:1011F00041EA0261826B9269114302689200A2F196
:10120000C042C2F8041107E06FF070420168890023
:10121000A1F1C041C1F804217047F0B50A46002190
:101220000023002400BF3DE0012505FA01F3156805
:1012300005EA03049C4234D105684F000326BE40F2
:10124000B543056015794E00B54006683543056025
:101250001579012D02D01579022D16D185684F0020
:101260000326BE40B543856055794E00B54086687B
:1012700035438560456801268E40B5434560456825
:1012800096798E40B6B235434560C5684F00032657
:10129000BE40B543C560D5794E00B540C6683543FC
:1012A000C560491C1029BFD3F0BDF0B50023002450
:1012B0004D07ED0E02FA05F3CE1000F1200555F8AA
:1012C00026504E07F70E0F26BE40B543CF1000F153
:1012D000200646F82750CE1000F1200555F826507C
:1012E00045EA0304CE1000F1200545F82640F0BD84
:1012F000418370470183704710B52DED088B7E4800
:10130000C08840F24A61884206DD7B48C088A0F26E
:101310004A607A4908600FE07748C08840F29651E9
:10132000884206DA7448C088A0F296507349086073
:1013300002E00020714908606F48008840F2FA51CD
:10134000884206DD6C480088A0F2FA506C490860BB
:101350000FE06948008840F2BE51884206DA6648CC
:101360000088A0F2BE506649086002E0002064498F
:10137000086061484088B0F5C86F20DD5E49498843
:10138000A1F5C86005F097FF41EC1B0B9FED5D0BCD
:1013900053EC102B05F0BAFF41EC190B5B480068C9
:1013A00006F09CF941EC1A0B53EC192B06F0ACF843
:1013B00041EC180B05F078FE5449086024E04E48D3
:1013C0004088B0F5AF6F1FDA4B494988A1F5AF608F
:1013D00005F071FF41EC1B0B9FED4A0B53EC102BFA
:1013E00005F094FF41EC190B4848006806F076F9C7
:1013F00041EC1A0B53EC192B06F086F841EC180B54
:1014000005F052FE414908603B48008B032803D198
:1014100000203B49086010E03748008B042803D1C6
:1014200000203649086008E03348008B052804D1C5
:101430009FED370A354880ED000A30480068B0F566
:10144000167F03DD4FF416702C4908602B480068A6
:1014500010F5167F02DA2F482849086028480068EE
:10146000B0F5167F03DD4FF4167025490860244857
:10147000006810F5167F02DA2648214908602648E0
:101480000068B0F5C87F03DD4FF4C87022490860DA
:101490002148006810F5C87F03DA1E48C8301E498D
:1014A00008601548C08840F29651884220DB1248F7
:1014B000C08840F24A6188421ADA0F48008840F238
:1014C000BE51884214DD0C48008840F2FA5188422F
:1014D0000EDA09484088B0F5AF6F09DD064840884C
:1014E000B0F5C86F04DA00200449086004490860B8
:1014F000BDEC088B10BD00009800002064000020A7
:10150000680000207B14AE47E17A843F5C00002035
:1015100000000000A8FDFFFF6C00002000BFFEE7F8
:1015200070B504460026174805884088454315488D
:10153000808846F60401884216D112488079012835
:1015400012D100200F4988712A2048812B208881E0
:101550000021084603F060FF01200A4988712B2012
:1015600048812A20888103E00021084603F054FFC7
:1015700004F03EF8002602E003480480761CAE42E8
:10158000FAD370BD420100208000006C10B5044603
:10159000002C66D16C498871F02008804FF4A0704F
:1015A00048800846808849F2413188420BD066481D
:1015B000808846F60401884205D06348808845F259
:1015C000103188421AD12C205F4908812A20488195
:1015D0002B2088810846808846F60401884205D081
:1015E0005948808845F21031884206D14FF4A070E6
:1015F000554908804FF4F0704880A1E05248808837
:1016000045F21051884210D14FF430504E490881B4
:101610004FF4285048814FF42C5088814FF4F070DB
:1016200008804FF4487048808AE04748808841F637
:10163000631188420DD12C20434908812B20488119
:101640002A2088814FF4F07008804FF44870488059
:1016500076E022203C490881202048812120888191
:101660006EE00120384988714FF4A0700880F020A6
:1016700048800846808849F24131884205D0324886
:10168000808845F21031884207D12C202E490881EC
:101690002A2048812B2088813FE02B48808846F60D
:1016A0000401884207D12C20274908812B2048813A
:1016B0002A20888131E02448808845F210518842F0
:1016C00010D14FF43050204908814FF42850488100
:1016D0004FF42C5088814FF4487008804FF4F0701C
:1016E00048801AE01848808841F6631188420DD17D
:1016F0002C20154908812A2048812B2088814FF40D
:10170000487008804FF4F070488006E022200E49AF
:10171000088121204881202088810B48808846F656
:101720000401884205D00848808845F2103188427B
:1017300006D14FF4F070044908804FF4A07048803F
:10174000002003F0F3FC10BD4201002000B5A1B061
:101750000020209001217A2004F0AAF901210846F6
:1017600004F0B6F94FF400401E9001208DF87C0083
:1017700000208DF87E0002208DF87D0001208DF87C
:101780007F001EA9FE48FFF748FD4CF233701E9003
:1017900002208DF87C0000208DF87E0003208DF85B
:1017A0007D0001208DF87F001EA9F648FFF735FD6A
:1017B0004FF680701E9002208DF87C0000208DF87E
:1017C0007E0003208DF87D0001208DF87F001EA98A
:1017D000ED48FFF722FD4FF480501E9002208DF857
:1017E0007C0000208DF87E0003208DF87D00012014
:1017F0008DF87F001EA9E548FFF70FFD4FF48050DC
:101800001E9002208DF87C0000208DF87E000320C1
:101810008DF87D0001208DF87F001EA9DC48FFF7C0
:10182000FCFC0C220021D748FFF73FFD0C220121D0
:10183000D448FFF73AFD0C220421D248FFF735FDCA
:101840000C220521CF48FFF730FD0C220821CD489E
:10185000FFF72BFD0C220921CA48FFF726FD0C22B9
:101860000A21C848FFF721FD0C220E21C548FFF7C9
:101870001CFD0C220F21C348FFF717FD0C22072186
:10188000C148FFF712FD0C220821BF48FFF70DFDEC
:101890000C220921BC48FFF708FD0C220A21BA4896
:1018A000FFF703FD0C220B21B748FFF7FEFC0C22CB
:1018B0001146B548FFF7F9FC0C220D21B248FFF79D
:1018C000F4FC0C220E21B048FFF7EFFC0C220F2194
:1018D000AD48FFF7EAFC0C221146AC48FFF7E5FCE7
:1018E0000C221146AA48FFF7E0FC0F2008900020C8
:1018F00009903C200A9000200B900C900D900E90C7
:1019000009200190002002900820039000200490FC
:1019100005900690079006200F90002010901190DF
:10192000102012900020139015901490169017908C
:101930004FF480501890002019904FF480401A9076
:1019400000201B9008A81C9001A81D900FA8FFF76D
:10195000F1FB01210620FFF7D3FB322005F0DEFA70
:101960000121002003F04EFE322005F0D7FA0020BE
:1019700003F0A0FB8749888008468088FF280ADB9F
:10198000084680884FF6FF71884204D081488088DD
:10199000B0F5134F7ED1D32003F01EFE03F080FB81
:1019A0007C49888003F07CFB7A49888003F078FBCF
:1019B00078498880084680884FF6FF7101EA002048
:1019C0007449888003F06CFB724989880843714927
:1019D00088800846808849F2413188425AD0BF2029
:1019E00003F0FAFD03F05CFB6A49888003F058FBC2
:1019F0006849888003F054FB6649888003F050FBF7
:101A000064498880084680884FF6FF7101EA00200B
:101A10006049888003F044FB5E49898808435D493A
:101A200088800846808846F6040188427AD0D4200F
:101A300003F0D2FD03F034FB5649888003F030FBFD
:101A40005449888003F02CFB5249888008468088DE
:101A50004FF6FF7101EA00204E49888003F020FB19
:101A60004C49898808434B4988800846808845F25C
:101A70001031884256D04FF45A4003F0ADFD03F0C8
:101A80000FFB444988804FF45B4003F0A5FD03F051
:101A900007FB00E046E03F498880084680884FF613
:101AA000FF7101EA00203B4988804FF45C4003F05D
:101AB00093FD03F0F5FA3749898808433549888052
:101AC00008468088B0F5004F02D145F2105088805A
:101AD0003048808845F21051884223D0A12003F07D
:101AE0007BFD03F0DDFA2B49888003F0D9FA294900
:101AF0008880084680884FF6FF7101EA002025495A
:101B0000888003F0CDFA23498988084321498880D9
:101B10000846808845F26171884203D141F663101E
:101B20001C4988801B48808849F24131884211D085
:101B30001848808845F2103188420BD015488088BB
:101B400045F21051884205D01248808841F6631151
:101B500088422DD11048006820F00F004FF020413E
:101B6000C1F81C010846D0F81C0120F47060C1F8CF
:101B70001C010846D0F81C0140F003000EE00000F4
:101B800000040240000C0240001002400014024019
:101B900000180240420100201C0100A0C1F81C01F5
:101BA0000846D0F81C0140F40070C1F81C0128E080
:101BB000FB48808846F60401884205D0F8488088B2
:101BC0004CF2055188421CD1F648006820F00F0005
:101BD0004FF02041C1F81C010846D0F81C0120F448
:101BE0007060C1F81C010846D0F81C0140F00A00E2
:101BF000C1F81C010846D0F81C0140F44060C1F84F
:101C00001C01E748808849F2413188427ED1CF20CB
:101C100003F0E2FC002003F0D3FCC12003F0D0FC71
:101C2000302003F0CDFCED2003F0D6FC642003F05F
:101C3000C7FC032003F0C4FC122003F0C1FC812088
:101C400003F0BEFCE82003F0C7FC852003F0B8FCDD
:101C5000102003F0B5FC7A2003F0B2FCCB2003F097
:101C6000BBFC392003F0ACFC2C2003F0A9FC0020C5
:101C700003F0A6FC342003F0A3FC022003F0A0FC38
:101C8000F72003F0A9FC202003F09AFCEA2003F0DF
:101C9000A3FC002003F094FC002003F091FCC02082
:101CA00003F09AFC1B2003F08BFCC12003F094FC92
:101CB000012003F085FCC52003F08EFC302003F0EA
:101CC0007FFC302003F07CFCC72003F085FCB720AC
:101CD00003F076FC362003F07FFC482003F070FC14
:101CE0003A2003F079FC552003F06AFCB12003F0A0
:101CF00073FC002003F064FC1A2003F061FCB620A2
:101D000003F06AFC0A2003F05BFC00E097E0A220ED
:101D100003F056FCF22003F05FFC002003F050FCBF
:101D2000262003F059FC012003F04AFCE02003F0D8
:101D300053FC0F2003F044FC2A2003F041FC282030
:101D400003F03EFC082003F03BFC0E2003F038FCBF
:101D5000082003F035FC542003F032FCA92003F0E6
:101D60002FFC432003F02CFC0A2003F029FC0F2059
:101D700003F026FC002003F023FC002003F020FCED
:101D8000002003F01DFC002003F01AFCE12003F00A
:101D900023FC002003F014FC152003F011FC172095
:101DA00003F00EFC072003F00BFC112003F008FCED
:101DB000062003F005FC2B2003F002FC562003F064
:101DC000FFFB3C2003F0FCFB052003F0F9FB102097
:101DD00003F0F6FB0F2003F0F3FB3F2003F0F0FBD2
:101DE0003F2003F0EDFB0F2003F0EAFB2B2003F074
:101DF000F3FB002003F0E4FB002003F0E1FB0120F3
:101E000003F0DEFB3F2003F0DBFB2A2003F0E4FBC2
:101E1000002003F0D5FB002003F0D2FB002003F0EC
:101E2000CFFBEF2003F0CCFB112003F0D5FB782093
:101E300005F074F8292003F0CFFB03F021B95848CE
:101E4000808846F6040188427ED1112003F0C4FB4D
:101E5000142005F063F8D02003F0BEFB072003F048
:101E6000AFFB422003F0ACFB1D2003F0A9FBD12007
:101E700003F0B2FB002003F0A3FB1A2003F0A0FB49
:101E8000092003F09DFBD22003F0A6FB012003F004
:101E900097FB222003F094FBC02003F09DFB102051
:101EA00003F08EFB3B2003F08BFB002003F088FB4C
:101EB000022003F085FB112003F082FBC52003F014
:101EC0008BFB032003F07CFBC82003F085FB002084
:101ED00003F076FB252003F073FB212003F070FB59
:101EE000052003F06DFB002003F06AFB0A2003F0DD
:101EF00067FB652003F064FB252003F061FB77207E
:101F000003F05EFB502003F05BFB0F2003F058FB57
:101F1000002003F055FBF82003F05EFB012003F0E6
:101F20004FFBFE2003F058FB002003F049FB02208A
:101F300003F046FB202003F04FFB362003F04CFB60
:101F4000082003F03DFB00E02EE03A2003F044FBC4
:101F5000552003F035FB2B2003F03EFB002003F05F
:101F60002FFB002003F02CFB012003F029FB3F2076
:101F700003F026FB2A2003F02FFB002003F020FBB8
:101F8000002003F01DFB012003F01AFBDF2003F00B
:101F900017FB782004F0C2FF292003F01DFB4CE75B
:101FA000420100201C0100A0FE48808845F210314B
:101FB000884240F07C87ED2003F00EFB012003F007
:101FC000FFFAFE2003F0FCFAEE2003F005FBDE2012
:101FD00003F0F6FA212003F0F3FAF12003F0FCFA03
:101FE000012003F0EDFADF2003F0F6FA102003F0F1
:101FF000E7FAC42003F0F0FA8F2003F0E1FAC620DC
:1020000003F0EAFA002003F0DBFAE22003F0D8FA4A
:10201000E22003F0D5FAE22003F0D2FABF2003F069
:10202000DBFAAA2003F0CCFAB02003F0D5FA0D2099
:1020300003F0C6FA002003F0C3FA0D2003F0C0FA43
:10204000002003F0BDFA112003F0BAFA002003F0DB
:10205000B7FA192003F0B4FA002003F0B1FA2120F6
:1020600003F0AEFA002003F0ABFA2D2003F0A8FA3B
:10207000002003F0A5FA3D2003F0A2FA002003F0AF
:102080009FFA5D2003F09CFA002003F099FA5D208E
:1020900003F096FA002003F093FAB12003F09CFAC3
:1020A000802003F08DFA002003F08AFA8B2003F0E1
:1020B00087FA002003F084FA962003F081FA0020CA
:1020C00003F07EFAB22003F087FA002003F078FADA
:1020D000002003F075FA022003F072FA002003F0EA
:1020E0006FFA032003F06CFA002003F069FAB320C2
:1020F00003F072FA002003F063FA002003F060FAA4
:10210000002003F05DFA002003F05AFA002003F0EB
:1021100057FA002003F054FA002003F051FA00208F
:1021200003F04EFA002003F04BFA002003F048FAC7
:10213000002003F045FA002003F042FA002003F0EB
:102140003FFA002003F03CFA002003F039FA0020A7
:1021500003F036FA002003F033FA002003F030FADF
:10216000002003F02DFA002003F02AFA002003F0EB
:1021700027FA002003F024FA002003F021FA0020BF
:1021800003F01EFAB42003F027FA8B2003F018FAAC
:10219000002003F015FA962003F012FA002003F055
:1021A0000FFAA12003F00CFA002003F009FAB52081
:1021B00003F012FA022003F003FA002003F000FA01
:1021C000032003F0FDF9002003F0FAF9042003F0E6
:1021D000F7F9002003F0F4F9B62003F0FDF9002030
:1021E00003F0EEF9002003F0EBF9B72003F0F4F967
:1021F000002003F0E5F9002003F0E2F93F2003F0AE
:10220000DFF9002003F0DCF95E2003F0D9F90020AB
:1022100003F0D6F9642003F0D3F9002003F0D0F9DD
:102220008C2003F0CDF9002003F0CAF9AC2003F0B4
:10223000C7F9002003F0C4F9DC2003F0C1F9002045
:1022400003F0BEF9702003F0BBF9002003F0B8F9E9
:10225000902003F0B5F9002003F0B2F9EB2003F071
:10226000AFF9002003F0ACF9DC2003F0A9F900205D
:1022700003F0A6F9B82003F0AFF9002003F0A0F9AD
:10228000002003F09DF9002003F09AF9002003F0EC
:1022900097F9002003F094F9002003F091F9002051
:1022A00003F08EF9002003F08BF9BA2003F094F9C3
:1022B000242003F085F9002003F082F9002003F0C8
:1022C0007FF9002003F07CF9C12003F085F920207C
:1022D00003F076F9002003F073F9542003F070F94D
:1022E000002003F06DF9FF2003F06AF9002003F0ED
:1022F00067F9C22003F070F90A2003F061F90020A9
:1023000003F05EF9042003F05BF9002003F058F9B4
:10231000C32003F061F93C2003F052F9002003F0E0
:102320004FF93A2003F04CF9002003F049F9392025
:1023300003F046F9002003F043F9372003F040F999
:10234000002003F03DF93C2003F03AF9002003F0AF
:1023500037F9362003F034F9002003F031F9322048
:1023600003F02EF9002003F02BF92F2003F028F9B9
:10237000002003F025F92C2003F022F9002003F0BF
:102380001FF9292003F01CF9002003F019F9262079
:1023900003F016F9002003F013F9242003F010F9DC
:1023A000002001E04201002003F00AF9242003F09C
:1023B00007F9002003F004F9232003F001F90020BD
:1023C00003F0FEF83C2003F0FBF8002003F0F8F8DF
:1023D000362003F0F5F8002003F0F2F8322003F085
:1023E000EFF8002003F0ECF82F2003F0E9F80020CC
:1023F00003F0E6F82C2003F0E3F8002003F0E0F807
:10240000292003F0DDF8002003F0DAF8262003F09D
:10241000D7F8002003F0D4F8242003F0D1F80020EE
:1024200003F0CEF8242003F0CBF8002003F0C8F826
:10243000232003F0C5F8002003F0C2F8C42003F005
:10244000CBF8622003F0BCF8002003F0B9F80520B7
:1024500003F0B6F8002003F0B3F8842003F0B0F8DE
:10246000002003F0ADF8F02003F0AAF8002003F0FC
:10247000A7F8182003F0A4F8002003F0A1F8A42086
:1024800003F09EF8002003F09BF8182003F098F862
:10249000002003F095F8502003F092F8002003F09C
:1024A0008FF80C2003F08CF8002003F089F8172037
:1024B00003F086F8002003F083F8952003F080F8FD
:1024C000002003F07DF8F32003F07AF8002003F0F9
:1024D00077F8E62003F074F8002003F071F8C520C7
:1024E00003F07AF8322003F06BF8002003F068F86C
:1024F000442003F065F8002003F062F8652003F043
:102500005FF8002003F05CF8762003F059F8002013
:1025100003F056F8882003F053F8002003F050F839
:10252000C62003F059F8202003F04AF8002003F0F9
:1025300047F8172003F044F8002003F041F8012089
:1025400003F03EF8002003F03BF8C72003F044F806
:10255000002003F035F8002003F032F8002003F0EB
:102560002FF8002003F02CF8C82003F035F80020E5
:1025700003F026F8002003F023F8002003F020F8F1
:10258000002003F01DF8C92003F026F8002003F016
:1025900017F8002003F014F8002003F011F80020D1
:1025A00003F00EF8002003F00BF8002003F008F809
:1025B000002003F005F8002003F002F8002002F0EC
:1025C000FFFF002002F0FCFF002002F0F9FF0020D6
:1025D00002F0F6FF002002F0F3FF002002F0F0FF0F
:1025E000002002F0EDFF002002F0EAFFE02002F000
:1025F000F3FF162002F0E4FF002002F0E1FF1C20B0
:1026000002F0DEFF002002F0DBFF212002F0D8FF05
:10261000002002F0D5FF362002F0D2FF002002F0A9
:10262000CFFF462002F0CCFF002002F0C9FF52206D
:1026300002F0C6FF002002F0C3FF642002F0C0FFDA
:10264000002002F0BDFF7A2002F0BAFF002002F065
:10265000B7FF8B2002F0B4FF002002F0B1FF9920F9
:1026600002F0AEFF002002F0ABFFA82002F0A8FFAE
:10267000002002F0A5FFB92002F0A2FF002002F026
:102680009FFFC42002F09CFF002002F099FFCA20A7
:1026900002F096FF002002F093FFD22002F090FF9C
:1026A000002002F08DFFD92002F08AFF002002F006
:1026B00087FFE02002F084FF002002F081FFF3207A
:1026C00002F07EFF002002F07BFFE12002F084FF99
:1026D000162002F075FF002002F072FF1C2002F0AD
:1026E0006FFF002002F06CFF222002F069FF002043
:1026F00002F066FF362002F063FF002002F060FF68
:10270000452002F05DFF002002F05AFF522002F047
:1027100057FF002002F054FF642002F051FF002018
:1027200002F04EFF7A2002F04BFF002002F048FF3B
:102730008B2002F045FF002002F042FF992002F0BA
:102740003FFF002002F03CFFA82002F039FF0020EC
:1027500002F036FFB92002F033FF002002F030FF14
:10276000C42002F02DFF002002F02AFFCA2002F050
:1027700027FF002002F024FFD22002F021FF0020DA
:1027800002F01EFFD82002F01BFF002002F018FF0D
:10279000E02002F015FF002002F012FFF32002F00B
:1027A0000FFF002002F00CFFE22002F015FF0520D1
:1027B00002F006FF002002F003FF0B2002F000FFF2
:1027C000002002F0FDFE1B2002F0FAFE002002F0C5
:1027D000F7FE342002F0F4FE002002F0F1FE442067
:1027E00002F0EEFE002002F0EBFE4F2002F0E8FEC9
:1027F000002002F0E5FE612002F0E2FE002002F07F
:10280000DFFE792002F0DCFE002002F0D9FE8820F5
:1028100002F0D6FE002002F0D3FE972002F0D0FE98
:10282000002002F0CDFEA62002F0CAFE002002F039
:10283000C7FEB72002F0C4FE002002F0C1FEC22095
:1028400002F0BEFE002002F0BBFEC72002F0B8FE80
:10285000002002F0B5FED12002F0B2FE002002F00E
:10286000AFFED62002F0ACFE002002F0A9FEDD2073
:1028700002F0A6FE002002F0A3FEF32002F0A0FE6C
:10288000002002F09DFEE32002F0A6FE052002F0EB
:1028900097FE002002F094FE0A2002F091FE002034
:1028A00002F08EFE1C2002F08BFE002002F088FE5B
:1028B000332002F085FE002002F082FE442002F068
:1028C0007FFE002002F07CFE502002F079FE002006
:1028D00002F076FE622002F073FE002002F070FE2D
:1028E000782002F06DFE002002F06AFE882002F0DF
:1028F00067FE002002F064FE972002F061FE0020D7
:1029000002F05EFEA62002F05BFE002002F058FE00
:10291000B72002F055FE002002F052FEC22002F065
:102920004FFE002002F04CFEC72002F049FE0020BE
:1029300002F046FED12002F043FE002002F040FEED
:10294000D52002F03DFE002002F03AFEDD2002F02C
:1029500037FE002002F034FEF32002F031FE0020AA
:1029600002F02EFEE42002F037FE012002F028FEE5
:10297000002002F025FE012002F022FE002002F0DD
:102980001FFE022002F01CFE002002F019FE2A2089
:1029900002F016FE002002F013FE3C2002F010FEB2
:1029A000002002F00DFE4B2002F00AFE002002F093
:1029B00007FE5D2002F004FE002002F001FE7420FC
:1029C00002F0FEFD002002F0FBFD842002F0F8FD85
:1029D000002002F0F5FD932002F0F2FD002002F04D
:1029E000EFFDA22002F0ECFD002002F0E9FDB32093
:1029F00002F0E6FD002002F0E3FDBE2002F0E0FD63
:102A0000002002F0DDFDC42002F0DAFD002002F01B
:102A1000D7FDCD2002F0D4FD002002F0D1FDD3205F
:102A200002F0CEFD002002F0CBFDDD2002F0C8FD5B
:102A3000002002F0C5FDF32002F0C2FD002002F0EC
:102A4000BFFDE52002F0C8FD002002F0B9FD002026
:102A500002F0B6FD002002F0B3FD002002F0B0FD50
:102A6000022002F0ADFD002002F0AAFD292002F0B4
:102A7000A7FD002002F0A4FD3C2002F0A1FD0020F3
:102A800002F09EFD4B2002F09BFD002002F098FD1D
:102A90005D2002F095FD002002F092FD742002F00E
:102AA0008FFD002002F08CFD842002F089FD0020C3
:102AB00002F086FD932002F083FD002002F080FDED
:102AC000A22002F07DFD002002F07AFDB32002F08A
:102AD00077FD002002F074FDBE2002F071FD0020A1
:102AE00002F06EFDC42002F06BFD002002F068FDD4
:102AF000CD2002F065FD002002F062FDD32002F03F
:102B00005FFD002002F05CFDDC2002F059FD00209A
:102B100002F056FDF32002F053FD002002F050FDBC
:102B2000E62002F059FD112002F04AFD002002F0DB
:102B300047FD342002F044FD002002F041FD562004
:102B400002F03EFD002002F03BFD762002F038FD51
:102B5000002002F035FD772002F032FD002002F067
:102B60002FFD662002F02CFD002002F029FD8820B8
:102B700002F026FD002002F023FD992002F020FD46
:102B8000002002F01DFDBB2002F01AFD002002F023
:102B900017FD992002F014FD002002F011FD6620BF
:102BA00002F00EFD002002F00BFD552002F008FDA2
:102BB000002002F005FD552002F002FD002002F089
:102BC000FFFC452002F0FCFC002002F0F9FC432051
:102BD00002F0F6FC002002F0F3FC442002F0F0FCCE
:102BE000002002F0EDFCE72002F0F6FC322002F0BB
:102BF000E7FC002002F0E4FC552002F0E1FC00209C
:102C000002F0DEFC762002F0DBFC002002F0D8FCB3
:102C1000662002F0D5FC002002F0D2FC672002F012
:102C2000CFFC002002F0CCFC672002F0C9FC0020A1
:102C300002F0C6FC872002F0C3FC002002F0C0FCBA
:102C4000992002F0BDFC002002F0BAFCBB2002F08B
:102C5000B7FC002002F0B4FC992002F0B1FC002087
:102C600002F0AEFC772002F0ABFC002002F0A8FCE2
:102C7000442002F0A5FC002002F0A2FC562002F045
:102C80009FFC002002F09CFC232002F099FC002015
:102C900002F096FC332002F093FC002002F090FC3E
:102CA000452002F08DFC002002F08AFCE82002F0B2
:102CB00093FC002002F084FC002002F081FC9920AB
:102CC00002F07EFC002002F07BFC872002F078FC02
:102CD000002002F075FC882002F072FC002002F057
:102CE0006FFC772002F06CFC002002F069FC66208B
:102CF00002F066FC002002F063FC882002F060FC19
:102D0000002002F05DFCAA2002F05AFC002002F034
:102D100057FCBB2002F054FC002002F051FC99202B
:102D200002F04EFC002002F04BFC662002F048FC52
:102D3000002002F045FC552002F042FC002002F089
:102D40003FFC552002F03CFC002002F039FC4420FE
:102D500002F036FC002002F033FC442002F030FC8C
:102D6000002002F02DFC552002F02AFC002002F089
:102D700027FCE92002F030FCAA2002F021FC002010
:102D800002F01EFC002002F01BFC002002F018FCE8
:102D9000002002F021FCAA2002F012FCCF2002F059
:102DA0001BFC002002F00CFC002002F009FC0020BB
:102DB00002F006FC002002F003FC002002F000FC00
:102DC000002002F0FDFB002002F0FAFB002002F0E0
:102DD000F7FB002002F0F4FB002002F0F1FB0020E2
:102DE00002F0EEFB002002F0EBFB002002F0E8FB1B
:102DF000002002F0E5FB002002F0E2FB002002F0E0
:102E0000DFFB002002F0DCFBF02002F0E5FB0020FD
:102E100002F0D6FB502002F0D3FB002002F0D0FBE2
:102E2000002002F0CDFB002002F0CAFBF32002F0EC
:102E3000D3FB002002F0C4FBF92002F0CDFB0620FA
:102E400002F0BEFB102002F0BBFB292002F0B8FB11
:102E5000002002F0B5FB3A2002F0BEFB552002F044
:102E6000AFFB112002F0B8FB642004F057F82920D2
:102E700002F0B2FB352002F0AFFB002002F0A0FB15
:102E8000512002F0A9FBFF2002F09AFB532002F030
:102E9000A3FB2C2002F094FB552002F09DFB822026
:102EA00002F08EFB2C2002F097FB02F0E9B8FE48FE
:102EB000808845F2105188427ED155214FF47040F0
:102EC00002F0A0FBAA214FF2010002F09BFB52216D
:102ED0004FF2020002F096FB08214FF2030002F0CD
:102EE00091FB01214FF2040002F08CFB0D214FF405
:102EF000304002F087FB0D214BF2010002F082FB13
:102F00000D214BF2020002F07DFB34214FF43640DC
:102F100002F078FB34214BF2016002F073FB3421A4
:102F20004BF2026002F06EFB0D214FF4314002F0D3
:102F300069FB0D214BF2011002F064FB0D214BF2F5
:102F4000021002F05FFB34214FF4374002F05AFBCD
:102F500034214BF2017002F055FB34214BF2027028
:102F600002F050FB00214FF4324002F04BFB0021F5
:102F70004BF2012002F046FB00214BF2022002F04E
:102F800041FB24214FF4384002F03CFB24214BF656
:102F9000010002F037FB24214BF6020002F032FB65
:102FA00001214FF43F4002F02DFB0F214FF433403D
:102FB00002F028FB0F2100E0FEE34BF2013002F0AB
:102FC00021FB0F214BF2023002F01CFB34214FF4A5
:102FD000394002F017FB34214BF6011002F012FBCE
:102FE00034214BF6021002F00DFB08214FF435405E
:102FF00002F008FB08214BF2015002F003FB08210C
:103000004BF2025002F0FEFA03214FF4424002F06C
:10301000F9FA24214FF43A4002F0F4FA24214BF655
:10302000012002F0EFFA24214BF6022002F0EAFA26
:1030300000214FF43C4002F0E5FA78214BF60140C4
:1030400002F0E0FA00214BF6024002F0DBFA002128
:103050004FF43D4002F0D6FA78214BF6015002F0D1
:10306000D1FA00214BF6025002F0CCFA00214FF4C5
:103070003E4002F0C7FA64214BF6016002F0C2FA4A
:1030800000214FF4514002F0BDFA33214DF20110FE
:1030900002F0B8FA00214DF2021002F0B3FA342126
:1030A0004DF2031002F0AEFA00214DF2041002F0CE
:1030B000A9FA3A214DF2051002F0A4FA00214DF2CE
:1030C000061002F09FFA4A214DF2071002F09AFA18
:1030D00000214DF2081002F095FA5C214DF2091022
:1030E00002F090FA00214DF20A1002F08BFA8121D1
:1030F0004DF20B1002F086FA00214DF20C1002F096
:1031000081FAA6214DF20D1002F07CFA00214DF259
:103110000E1002F077FAE5214DF20F1002F072FA6C
:1031200001214DF2101002F06DFA13214DF2111031
:1031300002F068FA01214DF2121002F063FA5421F4
:103140004DF2131002F05EFA01214DF2141002F05C
:1031500059FA82214DF2151002F054FA01214DF274
:10316000161002F04FFACA214DF2171002F04AFA77
:1031700002214DF2181002F045FA00214DF219100B
:1031800002F040FA02214DF21A1002F03BFA01213E
:103190004DF21B1002F036FA02214DF21C1002F023
:1031A00031FA34214DF21D1002F02CFA02214DF2B9
:1031B0001E1002F027FA67214DF21F1002F022FACA
:1031C00002214DF2201002F01DFA84214DF221104F
:1031D00002F018FA02214DF2221002F013FAA42193
:1031E0004DF2231002F00EFA02214DF2241002F0EB
:1031F00009FAB7214DF2251002F004FA02214DF22E
:10320000261002F0FFF9CF214DF2271002F0FAF953
:1032100002214DF2281002F0F5F9DE214DF22910BD
:1032200002F0F0F902214DF22A1002F0EBF9F2213E
:103230004DF22B1002F0E6F902214DF22C1002F0B3
:10324000E1F9FE214DF22D1002F0DCF903214DF2DF
:103250002E1002F0D7F910214DF22F1002F0D2F902
:1032600003214DF2301002F0CDF933214DF231102F
:1032700002F0C8F903214DF2321002F0C3F96D21BA
:103280004DF2331002F0BEF900214FF4524002F02B
:10329000B9F933214DF2012002F0B4F900214DF2C9
:1032A000022002F0AFF901E04201002034214DF28A
:1032B000032002F0A7F900214DF2042002F0A2F948
:1032C0003A214DF2052002F09DF900214DF2062031
:1032D00002F098F94A214DF2072002F093F90021FB
:1032E0004DF2082002F08EF95C214DF2092002F027
:1032F00089F900214DF20A2002F084F981214DF272
:103300000B2002F07FF900214DF20C2002F07AF937
:10331000A6214DF20D2002F075F900214DF20E208C
:1033200002F070F9E5214DF20F2002F06BF9012156
:103330004DF2102002F066F913214DF2112002F037
:1033400061F901214DF2122002F05CF954214DF295
:10335000132002F057F901214DF2142002F052F926
:1033600082214DF2152002F04DF901214DF2162077
:1033700002F048F9CA214DF2172002F043F9022168
:103380004DF2182002F03EF900214DF2192002F012
:1033900039F902214DF21A2002F034F901214DF2DF
:1033A0001B2002F02FF902214DF21C2002F02AF915
:1033B00034214DF21D2002F025F902214DF21E208C
:1033C00002F020F967214DF21F2002F01BF90221C3
:1033D0004DF2202002F016F984214DF2212002F056
:1033E00011F902214DF2222002F00CF9A4214DF234
:1033F000232002F007F902214DF2242002F002F905
:10340000B7214DF2252002F0FDF802214DF22620D1
:1034100002F0F8F8CF214DF2272002F0F3F8022154
:103420004DF2282002F0EEF8DE214DF2292002F0C4
:10343000E9F802214DF22A2002F0E4F8F2214DF2DF
:103440002B2002F0DFF802214DF22C2002F0DAF8F6
:10345000FE214DF22D2002F0D5F803214DF22E2051
:1034600002F0D0F810214DF22F2002F0CBF803210A
:103470004DF2302002F0C6F833214DF2312002F037
:10348000C1F803214DF2322002F0BCF86D214DF25B
:10349000332002F0B7F800214FF4534002F0B2F8A5
:1034A00033214DF2013002F0ADF800214DF202302F
:1034B00002F0A8F834214DF2033002F0A3F8002105
:1034C0004DF2043002F09EF83A214DF2053002F040
:1034D00099F800214DF2063002F094F84A214DF29D
:1034E000073002F08FF800214DF2083002F08AF820
:1034F0005C214DF2093002F085F800214DF20A30CE
:1035000002F080F881214DF20B3002F07BF80021AF
:103510004DF20C3002F076F8A6214DF20D3002F09B
:1035200071F800214DF20E3002F06CF8E5214DF2F9
:103530000F3002F067F801214DF2103002F062F80E
:1035400013214DF2113002F05DF801214DF21230DD
:1035500002F058F854214DF2133002F053F80121D3
:103560004DF2143002F04EF882214DF2153002F087
:1035700049F801214DF2163002F044F8CA214DF20B
:10358000173002F03FF802214DF2183002F03AF8FD
:1035900000214DF2193002F035F802214DF21A30B7
:1035A00002F030F801214DF21B3002F02BF802211D
:1035B0004DF21C3002F026F834214DF21D3002F09D
:1035C00021F802214DF21E3002F01CF867214DF265
:1035D0001F3002F017F802214DF2203002F012F8ED
:1035E00084214DF2213002F00DF802214DF22230FB
:1035F00002F008F8A4214DF2233002F003F8022172
:103600004DF2243001F0FEFFB7214DF2253001F0DC
:10361000F9FF02214DF2263001F0F4FFCF214DF2E7
:10362000273001F0EFFF02214DF2283001F0EAFFD0
:10363000DE214DF2293001F0E5FF02214DF22A3062
:1036400001F0E0FFF2214DF22B3001F0DBFF02210F
:103650004DF22C3001F0D6FFFE214DF22D3001F05D
:10366000D1FF03214DF22E3001F0CCFF10214DF29D
:103670002F3001F0C7FF03214DF2303001F0C2FFBF
:1036800033214DF2313001F0BDFF03214DF23230D4
:1036900001F0B8FF6D214DF2333001F0B3FF00218E
:1036A0004FF4544001F0AEFF33214DF2014001F0E0
:1036B000A9FF00214DF2024001F0A4FF34214DF298
:1036C000034001F09FFF00214DF2044001F09AFFFA
:1036D0003A214DF2054001F095FF00214DF20640E0
:1036E00001F090FF4A214DF2074001F08BFF0021CD
:1036F0004DF2084001F086FF5C214DF2094001F0D7
:1037000081FF00214DF20A4001F07CFF81214DF242
:103710000B4001F077FF00214DF20C4001F072FFE9
:10372000A6214DF20D4001F06DFF00214DF20E403B
:1037300001F068FFE5214DF20F4001F063FF012128
:103740004DF2104001F05EFF13214DF2114001F0E7
:1037500059FF01214DF2124001F054FF54214DF266
:10376000134001F04FFF01214DF2144001F04AFFD8
:1037700082214DF2154001F045FF01214DF2164026
:1037800001F040FFCA214DF2174001F03BFF02213A
:103790004DF2184001F036FF00214DF2194001F0C2
:1037A00031FF02214DF21A4001F02CFF01214DF2B0
:1037B0001B4001F027FF00E004E302214DF21C4012
:1037C00001F020FF34214DF21D4001F01BFF0221CA
:1037D0004DF21E4001F016FF67214DF21F4001F02F
:1037E00011FF02214DF2204001F00CFF84214DF227
:1037F000214001F007FF02214DF2224001F002FFBB
:10380000A4214DF2234001F0FDFE02214DF224409F
:1038100001F0F8FEB7214DF2254001F0F3FE022140
:103820004DF2264001F0EEFECF214DF2274001F08F
:10383000E9FE02214DF2284001F0E4FEDE214DF2C6
:10384000294001F0DFFE02214DF22A4001F0DAFEAC
:10385000F2214DF22B4001F0D5FE02214DF22C4019
:1038600001F0D0FEFE214DF22D4001F0CBFE0321F0
:103870004DF22E4001F0C6FE10214DF22F4001F016
:10388000C1FE03214DF2304001F0BCFE33214DF268
:10389000314001F0B7FE03214DF2324001F0B2FE9B
:1038A0006D214DF2334001F0ADFE00214FF4554043
:1038B00001F0A8FE33214DF2015001F0A3FE0021DA
:1038C0004DF2025001F09EFE34214DF2035001F002
:1038D00099FE00214DF2045001F094FE3A214DF280
:1038E000055001F08FFE00214DF2065001F08AFED6
:1038F0004A214DF2075001F085FE00214DF208509B
:1039000001F080FE5C214DF2095001F07BFE0021A8
:103910004DF20A5001F076FE81214DF20B5001F07C
:1039200071FE00214DF20C5001F06CFEA6214DF20B
:103930000D5001F067FE00214DF20E5001F062FEC5
:10394000E5214DF20F5001F05DFE01214DF21050C6
:1039500001F058FE13214DF2115001F053FE0121E8
:103960004DF2125001F04EFE54214DF2135001F071
:1039700049FE01214DF2145001F044FE82214DF226
:10398000155001F03FFE01214DF2165001F03AFEB4
:10399000CA214DF2175001F035FE02214DF21850A8
:1039A00001F030FE00214DF2195001F02BFE0221F2
:1039B0004DF21A5001F026FE01214DF21B5001F08C
:1039C00021FE02214DF21C5001F01CFE34214DF26B
:1039D0001D5001F017FE02214DF21E5001F012FEA3
:1039E00067214DF21F5001F00DFE02214DF22050D3
:1039F00001F008FE84214DF2215001F003FE022166
:103A00004DF2225001F0FEFDA4214DF2235001F0B1
:103A1000F9FD02214DF2245001F0F4FDB7214DF2E1
:103A2000255001F0EFFD02214DF2265001F0EAFD94
:103A3000CF214DF2275001F0E5FD02214DF2285033
:103A400001F0E0FDDE214DF2295001F0DBFD022105
:103A50004DF22A5001F0D6FDF2214DF22B5001F02B
:103A6000D1FD02214DF22C5001F0CCFDFE214DF292
:103A70002D5001F0C7FD03214DF22E5001F0C2FD83
:103A800010214DF22F5001F0BDFD03214DF23050B9
:103A900001F0B8FD33214DF2315001F0B3FD0321A7
:103AA0004DF2325001F0AEFD6D214DF2335001F078
:103AB000A9FD00214FF4564001F0A4FD33214DF241
:103AC000016001F09FFD00214DF2026001F09AFDBE
:103AD00034214DF2036001F095FD00214DF20460A8
:103AE00001F090FD3A214DF2056001F08BFD0021BF
:103AF0004DF2066001F086FD4A214DF2076001F0AB
:103B000081FD00214DF2086001F07CFD5C214DF249
:103B1000096001F077FD00214DF20A6001F072FDAD
:103B200081214DF20B6001F06DFD00214DF20C6022
:103B300001F068FDA6214DF20D6001F063FD00214A
:103B40004DF20E6001F05EFDE5214DF20F6001F0D7
:103B500059FD01214DF2106001F054FD13214DF289
:103B6000116001F04FFD01214DF2126001F04AFD9C
:103B700054214DF2136001F045FD01214DF2146016
:103B800001F040FD82214DF2156001F03BFD012165
:103B90004DF2166001F036FDCA214DF2176001F0BA
:103BA00031FD02214DF2186001F02CFD00214DF293
:103BB000196001F027FD02214DF21A6001F022FD8B
:103BC00001214DF21B6001F01DFD02214DF21C6030
:103BD00001F018FD34214DF21D6001F013FD0221AA
:103BE0004DF21E6001F00EFD67214DF21F6001F0E5
:103BF00009FD02214DF2206001F004FD84214DF207
:103C0000216001F0FFFC02214DF2226001F0FAFC7C
:103C1000A4214DF2236001F0F5FC02214DF2246055
:103C200001F0F0FCB7214DF2256001F0EBFC022120
:103C30004DF2266001F0E6FCCF214DF2276001F045
:103C4000E1FC02214DF2286001F0DCFCDE214DF2A6
:103C5000296001F0D7FC02214DF22A6001F0D2FC6C
:103C6000F2214DF22B6001F0CDFC02214DF22C60CF
:103C700001F0C8FCFE214DF22D6001F0C3FC0321D0
:103C80004DF22E6001F0BEFC10214DF22F6001F0CC
:103C9000B9FC03214DF2306001F0B4FC33214DF248
:103CA000316001F0AFFC03214DF2326001F0AAFC5B
:103CB0006D214DF2336001F0A5FC55214FF47040A9
:103CC00001F0A0FCAA214FF2010001F09BFC52215F
:103CD0004FF2020001F096FC08214FF2030001F0C0
:103CE00091FC00214FF2040001F08CFCCC214FF438
:103CF000314001F087FC00214BF2011001F082FC01
:103D000005214FF4364001F07DFC70214FF437401F
:103D100001F078FC70214BF2017001F073FC01217D
:103D20004FF4384001F06EFC03214BF6010001F026
:103D300069FC03214BF6020001F064FC03214BF601
:103D4000030001F05FFC02214FF43C4001F05AFCFB
:103D500000214BF6014001F055FC00214BF60240DA
:103D600001F050FCD0214FF4494001F04BFC0221FE
:103D70004CF6011001F046FC50214CF6021001F007
:103D800041FC50214CF6031001F03CFC50214CF654
:103D9000041001F037FC00214FF4545001F032FCC4
:103DA00055214FF4685001F02DFC4FF4885001F07C
:103DB00013FC782003F0CEF84FF4245001F00CFCF3
:103DC00001F05EB9FE48808849F2253188427DD1F4
:103DD00047F6F001E52001F015FC4FF48071012059
:103DE00001F010FC4FF4E061022001F00BFC41F205
:103DF0003001032001F006FC0021042001F002FC48
:103E000040F20221082001F0FDFB0021092001F011
:103E1000F9FB00210A2001F0F5FB00210C2001F044
:103E2000F1FB00210D2001F0EDFB00210F2001F03E
:103E3000E9FB0021102001F0E5FB0721112001F032
:103E4000E1FB0021122001F0DDFB0021132001F035
:103E5000D9FB0021072001F0D5FB41F29061102031
:103E600001F0D0FB40F22721112001F0CBFB9D2176
:103E7000122001F0C7FB4FF4C851132001F0C2FB20
:103E80002521292001F0BEFB0D212B2001F0BAFBDA
:103E90000721302001F0B6FB40F20331312001F060
:103EA000B1FB0321322001F0ADFB40F206213520A9
:103EB00001F0A8FB0821362001F0A4FB40F20641E6
:103EC000372001F09FFB4FF4417100E058E03820AB
:103ED00001F098FB0721392001F094FB40F20261C8
:103EE0003C2001F08FFB08213D2001F08BFB0021DD
:103EF000502001F087FBEF21512001F083FB0021CE
:103F0000522001F07FFB40F23F11532001F07AFB79
:103F10004FF42741602001F075FB0121612001F081
:103F200071FB00216A2001F06DFB0021802001F06F
:103F300069FB0021812001F065FB0021822001F056
:103F400061FB0021832001F05DFB0021842001F052
:103F500059FB0021852001F055FB1021902001F034
:103F600051FB4FF4C061922001F04CFB40F2331141
:103F7000072001F047FB2221002001F043FB1FE74F
:103F80008F48808849F2283188427DD141F28F01E3
:103F9000EC2001F037FB41F23421EF2001F032FB3D
:103FA0004FF48071012001F02DFB4FF4E0610220FD
:103FB00001F028FB41F23001032001F023FB002136
:103FC000042001F01FFB40F20221082001F01AFB3F
:103FD0000021092001F016FB00210A2001F012FB4C
:103FE00001210C2001F00EFB00210D2001F00AFB45
:103FF00000210F2001F006FB0021102001F002FB40
:104000000721112001F0FEFA0021122001F0FAFA36
:104010000021132001F0F6FA0121072001F0F2FA45
:10402000322002F07BFF41F29041102001F0EAFAC9
:1040300040F22721112001F0E5FA322002F06EFF54
:104040008A21122001F0DEFA322002F067FF4FF4DD
:10405000D051132001F0D6FA0621292001F0D2FA1E
:104060000D212B2001F0CEFA322002F057FF002163
:10407000202001F0C7FA0021212001F0C3FA3220EC
:1040800002F04CFF002100E075E0302001F0BAFAA8
:1040900040F20461312001F0B5FA40F205313220DE
:1040A00001F0B0FA0021352001F0ACFA40F60941E8
:1040B000362001F0A7FA4FF40171372001F0A2FA7F
:1040C00040F20131382001F09DFA40F207713920A9
:1040D00001F098FA00213C2001F094FA40F60A2100
:1040E0003D2001F08FFA322002F018FF002150200D
:1040F00001F088FAEF21512001F084FA00215220CA
:1041000001F080FA40F23F11532001F07BFA4FF4A6
:104110002741602001F076FA0121612001F072FA56
:1041200000216A2001F06EFA0021802001F06AFA75
:104130000021812001F066FA0021822001F062FA5C
:104140000021832001F05EFA0021842001F05AFA58
:104150000021852001F056FA1021902001F052FA3A
:104160004FF4C061922001F04DFA40F23311072064
:1041700001F048FA24E61248808849F2203188424A
:104180007ED10021084601F03DFA4FF480710120F4
:1041900001F038FA4FF4E061022001F033FA41F205
:1041A0003001032001F02EFA0021042001F02AFA48
:1041B00040F20221082001F025FA0021092001E047
:1041C0004201002001F01EFA00210A2001F01AFA33
:1041D00001210C2001F016FA00210D2001F012FA45
:1041E00000210F2001F00EFA322002F097FE40F27B
:1041F0000111072001F006FA322002F08FFE4FF481
:104200008651102001F0FEF90721112001F0FAF982
:104210004FF48871122001F0F5F94FF4306113204A
:1042200001F0F0F90021292001F0ECF944F210012D
:104230002B2001F0E7F90021502001F0E3F9EF21F4
:10424000512001F0DFF90021522001F0DBF940F2AA
:104250003F11532001F0D6F94FF41C51602001F0BA
:10426000D1F90121612001F0CDF900216A2001F08E
:10427000C9F90021802001F0C5F90021812000E06A
:1042800030E001F0BFF90021822001F0BBF90021EC
:10429000832001F0B7F90021842001F0B3F9002157
:1042A000852001F0AFF91021902001F0ABF9002139
:1042B000922001F0A7F90121932001F0A3F94FF416
:1042C0008871952001F09EF90021972001F09AF95C
:1042D0000021982001F096F940F27311072001F0B7
:1042E00091F96DE5FE48808849F2313188427DD1EF
:1042F00041F21401E72001F085F94FF480710120AB
:1043000001F080F94FF40071022001F07BF941F2D5
:104310003801032001F076F940F20221082001F073
:1043200071F90021092001F06DF900210A2001F046
:1043300069F900210C2001F065F900210D2001F040
:1043400061F900210F2001F05DF90021102001F03A
:1043500059F90721112001F055F90021122001F02F
:1043600051F90021132001F04DF9C82002F0D6FDCB
:1043700041F29061102001F045F940F2272111200F
:1043800001F040F9322002F0C9FD0C21122001F0A9
:1043900039F9322002F0C2FD4FF40061132001F020
:1043A00031F91121292001F02DF90B212B2001F0E9
:1043B00029F9322002F0B2FD0021202001F022F97B
:1043C00040F23F11212001F01DF90021302001F0C1
:1043D00019F94FF48371312001F014F900213220D2
:1043E00001F010F94FF40171352000E064E001F0B4
:1043F00009F941F20A61362001F004F940F207712F
:10440000372001F0FFF84FF48371382001F0FAF8FB
:1044100040F20771392001F0F5F840F202413C20EA
:1044200001F0F0F840F60F413D2001F0EBF80021DB
:10443000502001F0E7F8EF21512001F0E3F80021CE
:10444000522001F0DFF840F23F11532001F0DAF87A
:104450004FF41C51602001F0D5F80121612001F0DA
:10446000D1F800216A2001F0CDF80021802001F070
:10447000C9F80021812001F0C5F80021822001F057
:10448000C1F80021832001F0BDF80021842001F053
:10449000B9F80021852001F0B5F81021902001F035
:1044A000B1F84FF4C061922001F0ACF840F2331142
:1044B000072001F0A7F883E48948808845F2084185
:1044C00088427DD14FF48071012001F09BF84FF4B8
:1044D000E061022001F096F841F23001032001F082
:1044E00091F80021042001F08DF840F20721082006
:1044F00001F088F80021092001F084F800210A2049
:1045000001F080F800210C2001F07CF800210D2042
:1045100001F078F800210F2001F074F8142002F067
:10452000FDFC41F2B061102001F06CF80121112076
:1045300001F068F80121172001F064F84FF49C7134
:10454000122001F05FF84FF40061132001F05AF8D7
:104550000921292001F056F809212A2001F052F8FA
:104560000021A42001F04EF80021502001F04AF86B
:10457000EF21512001F046F80021522001F042F8CD
:1045800040F23F11532001F03DF84FF41C516020E0
:1045900001F038F80121612001F034F800216A208F
:1045A00001F030F80021802001F02CF8002181205A
:1045B00001F028F80021822001F024F8002100E019
:1045C00024E0832001F01EF80021842001F01AF875
:1045D0000021852001F016F81321902001F012F837
:1045E0000021922001F00EF80321932001F00AF837
:1045F0004FF48871952001F005F840F273110720FF
:1046000001F000F8322002F089FCB8E434488088D8
:1046100041F2055188427DD10021072000F0F2FFD0
:10462000322002F07BFC4FF48E71122000F0EAFF82
:104630000121A42000F0E6FF0F21082000F0E2FF96
:1046400008210A2000F0DEFF08210D2000F0DAFF2B
:1046500040F20771302000F0D5FF0721312000F033
:10466000D1FF40F20361322000F0CCFF4FF4E06153
:10467000332000F0C7FF40F20221342000F0C2FFD7
:104680000221352000F0BEFF41F60F71362000F008
:10469000B9FF40F20771372000F0B4FF0021382045
:1046A00000F0B0FF0021392000F0ACFF40F20771AC
:1046B0003A2000F0A7FF00213B2000F0A3FF0721D4
:1046C0003C2000F09FFF00213D2000F09BFF3220A6
:1046D00002F024FC0121072000F094FF012101E0F9
:1046E00042010020172000F08DFF322002F016FC5E
:1046F0004FF4BD51102000F085FF40F2172111202A
:1047000000F080FF4FF48F71122000F07BFF4FF418
:10471000706100E098E0132000F074FF00212A206F
:1047200000F070FF0A21292000F06CFF4FF49F7108
:10473000122000F067FF0021502000F063FFEF21FE
:10474000512000F05FFF0021522000F05BFF40F29B
:104750003F11532000F056FF4FF41C51602000F031
:1047600051FF0121612000F04DFF00216A2000F07F
:1047700049FF0021802000F045FF0021812000F04A
:1047800041FF0021822000F03DFF0021832000F046
:1047900039FF0021842000F035FF0021852000F042
:1047A00031FF1321902000F02DFF4FF44071922033
:1047B00000F028FF0521932000F024FF0021952020
:1047C00000F020FF0021972000F01CFF002198201E
:1047D00000F018FF4FF48071012000F013FF4FF438
:1047E000E061022000F00EFF41F23801032000F0EA
:1047F00009FF0021042000F005FF00210C2000F03B
:1048000001FF00210F2000F0FDFE0021202000F01C
:10481000F9FE0021212000F0F5FE2121072000F003
:10482000F1FE142002F07AFB6121072000F0EAFE7D
:10483000142002F073FB40F27311072000F0E2FE37
:10484000142002F06BFB95E4FE4880884BF2055182
:1048500088427CD10021084600F0D4FE00210846A1
:1048600000F0D0FE0021084600F0CCFE00210846F2
:1048700000F0C8FE0121A42000F0C4FE142002F0C4
:104880004DFB4FF41C51602000F0BCFE40F20221B1
:10489000082000F0B7FE4FF40571302000F0B2FEA2
:1048A00043F21571312000F0ADFE40F20461322078
:1048B00000F0A8FE40F61661332000F0A3FE42F29D
:1048C0001121342000F09EFE4FF4A851352000F055
:1048D00099FE48F20751362000F094FE41F207415C
:1048E000372000F08FFE41F20341382000F08AFEAD
:1048F0002021392000F086FE1A21902000F082FE4F
:104900000021102000F07EFE0721112000F07AFE29
:104910000021122000F076FE0021132000F072FE2C
:10492000142002F0FBFA4FF4E661102000F06AFE5A
:1049300040F23711112000F065FE142002F0EEFA6B
:104940004FF4DC71122000F05DFE142000E085E0E1
:1049500002F0E4FA4FF47061132000F053FE80215E
:104960002A2000F04FFE4821292000F04BFE1420A1
:1049700002F0D4FA4FF48071012000F043FE4FF4AE
:10498000E061022000F03EFE41F23801032000F019
:1049900039FE40F20221082000F034FE00210A20F6
:1049A00000F030FE00210C2000F02CFE00210D2034
:1049B00000F028FE30210E2000F024FE00215020BF
:1049C00000F020FEEF21512000F01CFE00215220BB
:1049D00000F018FE40F23F11532000F013FE4FF498
:1049E0001C51602000F00EFE0121612000F00AFE43
:1049F00000216A2000F006FE1121902000F002FE46
:104A00004FF4C061922000F0FDFD40F2024193207E
:104A100000F0F8FD0221942000F0F4FD142002F0D3
:104A20007DFA0121072000F0EDFD142002F076FA56
:104A30006121072000F0E6FD40F27311072000F02D
:104A4000E1FD0021202000F0DDFD0021212000F00B
:104A5000D9FD2221002000F0D5FD11E3794880889E
:104A60004CF2055188427CD10021084600F0CAFD75
:104A70000021084600F0C6FD142002F04FFA002184
:104A8000084600F0BFFD0021084600F0BBFD0021F4
:104A9000084600F0B7FD0021084600F0B3FD0121F3
:104AA000A42000F0AFFD142002F038FA4FF41C519E
:104AB000602000F0A7FD40F60601082000F0A2FDEE
:104AC00040F20371302000F09DFD0121312000F003
:104AD00099FD0421322000F095FD4FF481713320BF
:104AE00000F090FD4FF44071342000F08BFD40F257
:104AF0000311352000F086FD1F21362000F082FDD5
:104B000040F20371372000F07DFD0121382000F0D4
:104B100079FD0421392000F075FD1521902000F069
:104B200071FD4FF48261102000F06CFD40F24721CE
:104B3000112000F067FD4FF4DE71122000F062FDDD
:104B40004FF46061132000F05DFD782002F0E6F97B
:104B50004FF48071012000F055FD4FF400710220E8
:104B600000E052E000F04EFD41F23001032000F081
:104B700049FD08210A2000F045FD00210C2000F02D
:104B800041FD20210E2000F03DFD00210F2000F00E
:104B900039FD0021202000F035FD0021212000F00A
:104BA00031FD3D212A2000F02DFD142002F0B6F940
:104BB0002D21292000F026FD0021502000F022FDAB
:104BC0004DF2EF01512000F01DFD0021522000F0B8
:104BD00019FD40F23F11532000F014FD0021612027
:104BE00000F010FD00216A2000F00CFD4FF4407130
:104BF000922000F007FD0521932000F003FD4FF403
:104C00008071072000F0FEFC3AE20E48808844F2F2
:104C1000315188427ED10121002000F0F3FC0A20AE
:104C200002F07CF941F22861102000F0EBFC0E212B
:104C3000122000F0E7FC40F63921132000F0E2FCDE
:104C40000A2001E04201002002F068F94021112011
:104C500000F0D8FC5021152000F0D4FC0A2002F00E
:104C60005DF91E21122000F0CDFC0A2002F056F959
:104C70004FF4B151102000F0C5FC42F63921132049
:104C800000F0C0FC0A2002F049F94FF480710120C5
:104C900000F0B8FC4FF44071022000F0B3FC41F288
:104CA0003801032000F0AEFC40F20221082000F0A1
:104CB000A9FC08210A2000F0A5FC0021302000F00A
:104CC000A1FC40F20241312000F09CFC4FF48371C2
:104CD000322000F097FC40F20351332000F092FCA8
:104CE0004FF48271342000F08DFC40F20131352008
:104CF00000F088FC40F20771362000F083FC40F29F
:104D00000531372000F07EFC4FF40271382000F0AE
:104D100079FC00E03EE040F60B71392000F072FCB7
:104D20000221412000F06EFC4FF41C51602000F085
:104D300069FC0121612000F065FC4FF404719020B2
:104D400000F060FC4FF48571922000F05BFC0421C0
:104D5000932000F057FC4FF48071A02000F052FC2B
:104D60000121072000F04EFC2121072000F04AFC21
:104D70002321072000F046FC3321072000F042FCED
:104D800040F23311072000F03DFC0021A02000F08C
:104D900039FC75E1C048808844F2355188427CD1A5
:104DA0003021152000F02EFC10219A2000F02AFC62
:104DB0002021112000F026FC43F22841102000F0B1
:104DC00021FC0221122000F01DFC41F238011320C9
:104DD00000F018FC282002F0A1F81221084600F08B
:104DE00011FC282002F09AF843F22041102000F034
:104DF00009FC43F23801132000F004FC462002F0C5
:104E00008DF80021302000F0FDFB40F202413120FE
:104E100000F0F8FB40F20731322000F0F3FB4FF4D2
:104E20004171332000F0EEFB0421342000F0EAFB56
:104E300040F20141352000F0E5FB40F207713620D9
:104E400000F0E0FB40F20531372000F0DBFB4FF4CF
:104E5000C261382000F0D6FB4FF4C261392000F067
:104E6000D1FB4FF48071012000F0CCFB4FF4407176
:104E7000022000F0C7FB41F23001032000F0C2FB2A
:104E800040F60801082000F0BDFB08210A2000F0D0
:104E9000B9FB4FF41C51602000E033E000F0B2FB9E
:104EA0000121612000F0AEFB4FF49F71902000F0D3
:104EB000A9FB4FF48071922000F0A4FB4FF48071A5
:104EC000932000F09FFB4FF44051A02000F09AFB8C
:104ED0001021A32000F096FB0121072000F092FB97
:104EE0002121072000F08EFB2321072000F08AFB00
:104EF0003321072000F086FB40F23311072000F039
:104F000081FBBDE06448808841F663118842F8D196
:104F1000E22000F061FB1D2000F052FB022000F0B7
:104F20004FFB042000F04CFB642002F013F8E0205B
:104F300000F052FB012000F043FB0A2001F0EEFFDD
:104F4000E02000F049FB032000F03AFB0C2001F0C8
:104F5000E5FF012000F040FB0A2001F0DFFFE62022
:104F600000F03AFB2F2000F02BFBFF2000F028FB85
:104F7000FF2000F025FBB02000F02EFB202000F0E9
:104F80001FFB002000F01CFB032000F019FB40F287
:104F90001F3000F015FB012000F012FB40F2DF1083
:104FA00000F00EFB002000F00BFBB42000F014FB1F
:104FB000042000F005FB40F21F4000F001FB002040
:104FC00000F0FEFA2E2000F0FBFA002000F0F8FAC4
:104FD000002000F0F5FA002000F0F2FA002000F0C6
:104FE000EFFAB62000F0F8FA022000F0E9FA4FF4E8
:104FF000037000F0E5FA002000F0E2FA172000F05C
:10500000DFFA152000F0DCFA002000F0D9FA0020C9
:1050100000F0D6FAF02000F0DFFA032000F0D0FA1A
:10502000292000F0D9FAD02000F0D6FA002000F0B4
:10503000C7FABE2000F0D0FA052000F0C1FAFE2029
:1050400000F0BEFA012000F0BBFA002000F0B8FA30
:10505000002000F0B5FA002000F0B2FAB82000F00D
:10506000BBFA032000F0ACFA012000F0A9FABA2044
:1050700000F0B2FA012000F0A3FA642000F026F854
:105080000020FCF783FA0120044908604FF6FF7006
:10509000FCF746FA21B000BD42010020BC8240422C
:1050A00008B5034800880090BDF8000008BD000066
:1050B0008000006C10B50446204600F08DFA0520F3
:1050C00001F048FFFFF7ECFF10BD000070B52DEDBB
:1050D000048B0446BE2000F07FFA052000F070FA31
:1050E000204602F0FFF841EC190B9FED0E0B53EC3C
:1050F000102B02F00BF941EC180B02F0AFF885B25F
:10510000284600F05DFA012000F05AFAFF2000F076
:1051100057FA002000F054FA002000F051FABDECDC
:10512000048B70BD6666666666660440F0B505462B
:1051300000240027B748807901280BD1B548808822
:1051400046F60401884205D0B248808841F66311D2
:10515000884208D1AF488079F0B9AE48808841F6DE
:105160006311884218D1082D15D2DFE805F0040636
:10517000080A0C0E101206250DE007250BE0042589
:1051800009E0052507E0012505E0002503E00325EA
:1051900001E0022500BF00BF9E48808849F24131EE
:1051A000884217D09B48808846F60401884211D077
:1051B0009848808845F2103188420BD09548808805
:1051C00045F21051884205D09248808841F663111B
:1051D00088427DD1082D1CD2DFE805F00406090CB9
:1051E0000F12151800BF14E044F0800411E044F0E1
:1051F00040040EE044F0C0040BE044F0200408E05A
:1052000044F0600405E044F0A00402E044F0E0044F
:1052100000BF00BF7F48808845F21051884202D10C
:105220004FF4585700E036277A48808845F210310D
:1052300088420DD07748808845F21051884207D0C7
:105240007448808841F66311884201D044F0080414
:105250007048808846F60401884201D144F0020477
:105260002146384600F0CEF96A48808841F663113D
:1052700088421DD004F0200068B166480088654966
:105280004988884214DA6348068840886149088062
:10529000084646800CE05F4800885E49498888429D
:1052A00006DD5C48068840885A49088008464680E2
:1052B0005848808845F21051884254D15549488950
:1052C00000F08AF9002000F07BF95249498900E09A
:1052D00078E0491C88B200F07FF9002000F070F9F6
:1052E0004C494989891C88B200F076F949490988F6
:1052F000491EC1F30F2000F063F946494989C91CD2
:1053000088B200F069F943490978491EC8B200F033
:1053100057F94049888900F05FF9002000F050F902
:105320003C498989491C88B200F056F9002000F0F8
:1053300047F938498989891C88B200F04DF9354907
:105340004988491EC1F30F2000F03AF93149898993
:10535000C91C88B200F040F92E498978491EC8B2AC
:1053600000F02EF955E02B49488900F035F900206E
:1053700000F026F9002000F023F926490988491E8B
:10538000C1F30F2000F01CF922490978491EC8B268
:1053900000F016F91F49888900F01EF9002000F07E
:1053A0000FF9002000F00CF91A494988491EC1F391
:1053B0000F2000F005F917498978491EC8B200F09E
:1053C000FFF826E0082D1CD2DFE805F004070A0DDF
:1053D0000F12151844F0300413E044F0100410E0EC
:1053E00044F020040DE000BF0BE044F0380408E076
:1053F00044F0280405E044F0180402E044F00804F6
:1054000000BF00BF032744F480542146384600F013
:10541000F9F8F0BD4201002030B504460D4667485A
:10542000808849F24131884205D06448808845F23D
:105430001031884214D16149488900F0CDF820121A
:1054400000F0BEF8E0B200F0BBF85C49888900F0DB
:10545000C3F8281200F0B4F8E8B200F0B1F8ABE0FD
:105460005648808846F6040188421DD15348807909
:10547000012804D151480088401E001B84B24F49C6
:10548000488900F0A9F8201200F09AF8E0B200F084
:1054900097F84A49888900F09FF8281200F090F8A0
:1054A000E8B200F08DF887E04448808841F6631147
:1054B000884247D141488079A8B940480088401EB9
:1054C000001B84B23D49488900F086F8002000F0B6
:1054D00077F8002000F074F8201200F071F8E0B2C4
:1054E00000F06EF816E03549488900F075F8201292
:1054F00000F066F8E0B200F063F830490988491E10
:10550000C1F30F2000F05CF82C490978491EC8B29D
:1055100000F056F82949888900F05EF8281200F05A
:105520004FF8E8B200F04CF824494988491EC1F30D
:105530000F2000F045F821498978491EC8B200F0D3
:105540003FF839E01D48808845F21051884220D14B
:105550001A49488900F040F8201200F031F8174944
:105560004989491C88B200F037F8E0B200F028F809
:105570001249888900F030F8281200F021F80F490C
:105580008989491C88B200F027F8E8B200F018F8C1
:1055900012E00A488079012804D108480088401E9A
:1055A000001B84B205494889214600F02BF80349C5
:1055B0008889294600F026F830BD0000420100200D
:1055C00001B5BDF800000090BDF800000149088059
:1055D00008BD00008000006C01B5BDF8000000901F
:1055E000BDF800000149088008BD00007E00006C85
:1055F00002480089024908807047000042010020EB
:105600007E00006C034A10804FF0D842A2F8801050
:10561000704700007E00006C00BFFEE710B5FAF78F
:1056200099FE4FF4FA7001F079FC00210846FBF76F
:1056300081FB4FF4FA7001F071FC00236422012118
:105640001846FBF7CFFAC82001F084FC002364223F
:1056500002211846FBF7C6FAC82001F07BFC0023A4
:10566000642203211846FBF7BDFAC82001F072FC42
:105670000023642204211846FBF7B4FAC82001F085
:1056800069FC032200210846FBF704FB4FF4FA7083
:1056900001F044FC10BD000010B52648408A0128E6
:1056A00003D02448008B0E281CD1002341F28E2207
:1056B00001211846FBF78EFB002341F28E220221C6
:1056C0001846FBF787FB002341F28E220321184680
:1056D000FBF780FB002341F28E2204211846FBF7E2
:1056E00079FB25E000F06CFC1348008803B241F21E
:1056F0008E2201210020FBF76DFB1048008803B2C9
:1057000041F28E2202210020FBF764FB0C48008846
:1057100003B241F28E2203210020FBF75BFB094814
:10572000008803B241F28E2204210020FBF752FBD5
:1057300010BD0000980000207000002074000020C0
:10574000780000207C000020704770471CB511A134
:1057500003C9CDE90001102000F06EFB0522694667
:10576000302000F017F905226946102000F092F869
:10577000002406E01DF80400A52800D003E0601C0A
:10578000C4B2052CF6DB00BF052C01D001201CBDE6
:105790000020FCE7A5A5A5A5A50000001CB50121DA
:1057A000422000F085F94FF48040009001208DF8F0
:1057B000040000208DF8060003208DF8050001206C
:1057C0008DF8070069461948FBF727FDC0200090B7
:1057D00001208DF8040000208DF8060003208DF8CC
:1057E000050001208DF8070069461148FBF715FDFB
:1057F0004FF48070009000208DF8040001208DF897
:10580000070069460A48FBF708FD4FF48041074846
:10581000FBF770FD00F092FA00F08EF800200549C9
:10582000086001200449C1F89C021CBD000402402C
:1058300000180240980243420000434210B5002085
:1058400011490860052211492A2000F0A3F801211E
:10585000212000F0BDF80121222000F0B9F84221FA
:10586000252000F0B5F82021312000F0B1F80F21FB
:10587000262000F0ADF80F21202000F0A9F801202B
:105880000349C1F8980210BD98024342D777000837
:10589000000043422DE9F04107460D461646002020
:1058A0000A490860384600F0ABFA8046002405E05B
:1058B000FF2000F0A5FA2855601CC4B2B442F7DB03
:1058C0000120024908604046BDE8F0819C02434245
:1058D00070B50446002007490860204600F090FAA1
:1058E000FF2000F08DFA054601200349C1F89C0213
:1058F000284670BD9C0243420000434270B50446F6
:10590000102000F099FA0720FFF7E2FF054629462C
:10591000272000F05DF805F0400050B1202221461C
:105920006120FFF7B7FFFF21E22000F051F80020CF
:1059300070BD0120FCE7000000B585B000211448CF
:1059400000F08EFA0020ADF800004FF48270ADF840
:1059500002000020ADF80400ADF80600ADF8080024
:105960004FF40070ADF80A003820ADF80C000020AC
:10597000ADF80E000720ADF810006946044800F0AD
:1059800089FA0121024800F06BFA05B000BD000061
:10599000003001402DE9F04107460C461546002035
:1059A0000A490860384600F02BFA8046002605E0D8
:1059B00014F8010B00F024FA701CC6B2AE42F7DBFB
:1059C0000120024908604046BDE8F0819C02434244
:1059D00070B505460C46002007490860284600F0CF
:1059E0000FFA0646204600F00BFA01200349C1F8E1
:1059F0009C02304670BD00009C02434200004342BE
:105A000010B5FFF7CBFE00BFFFF7A0FE0028FBD1CB
:105A1000FFF714FF4FF4FA7001F080FA10BD000098
:105A200070B5002100230F22C4781CB3174C2468E2
:105A300004F4E064C4F5E064C4F30721C1F1040494
:105A4000E3B20A4144789C40E1B284781440214397
:105A50000C07210E0E4C05786155047804F01F05E3
:105A60000124AC4005786D11AD0005F1E025C5F8C5
:105A7000004109E0047804F01F050124AC40054D05
:105A80000678761145F8264070BD00000CED00E068
:105A900000E400E080E100E002490143024A1160B5
:105AA000704700000000FA050CED00E070470000B0
:105AB00029B1064A12680243044B1A6004E0034A03
:105AC00012688243014B1A60704700003038024070
:105AD00029B1064A12680243044B1A6004E0034AE3
